{
  "_format": "hh-sol-artifact-1",
  "contractName": "Raffle",
  "sourceName": "contracts/Raffle.sol",
  "abi": [
    {
      "inputs": [
        {
          "internalType": "address",
          "name": "vrfCoordinatorV2",
          "type": "address"
        },
        {
          "internalType": "uint256",
          "name": "entranceFee",
          "type": "uint256"
        },
        {
          "internalType": "bytes32",
          "name": "gasLane",
          "type": "bytes32"
        },
        {
          "internalType": "uint64",
          "name": "subscriptionId",
          "type": "uint64"
        },
        {
          "internalType": "uint32",
          "name": "callbackGasLimit",
          "type": "uint32"
        },
        {
          "internalType": "uint256",
          "name": "interval",
          "type": "uint256"
        }
      ],
      "stateMutability": "nonpayable",
      "type": "constructor"
    },
    {
      "inputs": [
        {
          "internalType": "address",
          "name": "have",
          "type": "address"
        },
        {
          "internalType": "address",
          "name": "want",
          "type": "address"
        }
      ],
      "name": "OnlyCoordinatorCanFulfill",
      "type": "error"
    },
    {
      "inputs": [],
      "name": "Raffle__NotEnoughETHEntered",
      "type": "error"
    },
    {
      "inputs": [],
      "name": "Raffle__NotOpen",
      "type": "error"
    },
    {
      "inputs": [],
      "name": "Raffle__TransferFailed",
      "type": "error"
    },
    {
      "inputs": [
        {
          "internalType": "uint256",
          "name": "currentBalance",
          "type": "uint256"
        },
        {
          "internalType": "uint256",
          "name": "numPlayers",
          "type": "uint256"
        },
        {
          "internalType": "uint256",
          "name": "raffleState",
          "type": "uint256"
        }
      ],
      "name": "Raffle__UpkeepNotNeeded",
      "type": "error"
    },
    {
      "anonymous": false,
      "inputs": [
        {
          "indexed": true,
          "internalType": "address",
          "name": "player",
          "type": "address"
        }
      ],
      "name": "RaffleEnter",
      "type": "event"
    },
    {
      "anonymous": false,
      "inputs": [
        {
          "indexed": true,
          "internalType": "uint256",
          "name": "requestId",
          "type": "uint256"
        }
      ],
      "name": "RequestedRaffleWinner",
      "type": "event"
    },
    {
      "anonymous": false,
      "inputs": [
        {
          "indexed": true,
          "internalType": "address",
          "name": "winner",
          "type": "address"
        }
      ],
      "name": "WinnerPicked",
      "type": "event"
    },
    {
      "inputs": [
        {
          "internalType": "bytes",
          "name": "",
          "type": "bytes"
        }
      ],
      "name": "checkUpkeep",
      "outputs": [
        {
          "internalType": "bool",
          "name": "upkeepNeeded",
          "type": "bool"
        },
        {
          "internalType": "bytes",
          "name": "",
          "type": "bytes"
        }
      ],
      "stateMutability": "nonpayable",
      "type": "function"
    },
    {
      "inputs": [],
      "name": "enterRaffle",
      "outputs": [],
      "stateMutability": "payable",
      "type": "function"
    },
    {
      "inputs": [],
      "name": "getEntranceFee",
      "outputs": [
        {
          "internalType": "uint256",
          "name": "",
          "type": "uint256"
        }
      ],
      "stateMutability": "view",
      "type": "function"
    },
    {
      "inputs": [],
      "name": "getInterval",
      "outputs": [
        {
          "internalType": "uint256",
          "name": "",
          "type": "uint256"
        }
      ],
      "stateMutability": "view",
      "type": "function"
    },
    {
      "inputs": [],
      "name": "getLatestTimeStamp",
      "outputs": [
        {
          "internalType": "uint256",
          "name": "",
          "type": "uint256"
        }
      ],
      "stateMutability": "view",
      "type": "function"
    },
    {
      "inputs": [],
      "name": "getNumberOfPlayers",
      "outputs": [
        {
          "internalType": "uint256",
          "name": "",
          "type": "uint256"
        }
      ],
      "stateMutability": "view",
      "type": "function"
    },
    {
      "inputs": [
        {
          "internalType": "uint256",
          "name": "index",
          "type": "uint256"
        }
      ],
      "name": "getPlayer",
      "outputs": [
        {
          "internalType": "address",
          "name": "",
          "type": "address"
        }
      ],
      "stateMutability": "view",
      "type": "function"
    },
    {
      "inputs": [],
      "name": "getRaffleState",
      "outputs": [
        {
          "internalType": "enum Raffle.RaffleState",
          "name": "",
          "type": "uint8"
        }
      ],
      "stateMutability": "view",
      "type": "function"
    },
    {
      "inputs": [],
      "name": "getRandomWords",
      "outputs": [
        {
          "internalType": "uint256",
          "name": "",
          "type": "uint256"
        }
      ],
      "stateMutability": "pure",
      "type": "function"
    },
    {
      "inputs": [],
      "name": "getRecentWinner",
      "outputs": [
        {
          "internalType": "address",
          "name": "",
          "type": "address"
        }
      ],
      "stateMutability": "view",
      "type": "function"
    },
    {
      "inputs": [],
      "name": "getRequestConfirmations",
      "outputs": [
        {
          "internalType": "uint256",
          "name": "",
          "type": "uint256"
        }
      ],
      "stateMutability": "pure",
      "type": "function"
    },
    {
      "inputs": [
        {
          "internalType": "bytes",
          "name": "",
          "type": "bytes"
        }
      ],
      "name": "performUpkeep",
      "outputs": [],
      "stateMutability": "nonpayable",
      "type": "function"
    },
    {
      "inputs": [
        {
          "internalType": "uint256",
          "name": "requestId",
          "type": "uint256"
        },
        {
          "internalType": "uint256[]",
          "name": "randomWords",
          "type": "uint256[]"
        }
      ],
      "name": "rawFulfillRandomWords",
      "outputs": [],
      "stateMutability": "nonpayable",
      "type": "function"
    }
  ],
  "bytecode": "0x6101806040523480156200001257600080fd5b506040516200197e3803806200197e8339818101604052810190620000389190620002c9565b858073ffffffffffffffffffffffffffffffffffffffff1660808173ffffffffffffffffffffffffffffffffffffffff1681525050508460a081815250508360e081815250508267ffffffffffffffff166101008167ffffffffffffffff16815250508163ffffffff166101208163ffffffff16815250508573ffffffffffffffffffffffffffffffffffffffff1660c08173ffffffffffffffffffffffffffffffffffffffff16815250506000600160146101000a81548160ff021916908360018111156200010d576200010c62000365565b5b0217905550426002819055508061014081815250503373ffffffffffffffffffffffffffffffffffffffff166101608173ffffffffffffffffffffffffffffffffffffffff168152505050505050505062000394565b600080fd5b600073ffffffffffffffffffffffffffffffffffffffff82169050919050565b6000620001958262000168565b9050919050565b620001a78162000188565b8114620001b357600080fd5b50565b600081519050620001c7816200019c565b92915050565b6000819050919050565b620001e281620001cd565b8114620001ee57600080fd5b50565b6000815190506200020281620001d7565b92915050565b6000819050919050565b6200021d8162000208565b81146200022957600080fd5b50565b6000815190506200023d8162000212565b92915050565b600067ffffffffffffffff82169050919050565b620002628162000243565b81146200026e57600080fd5b50565b600081519050620002828162000257565b92915050565b600063ffffffff82169050919050565b620002a38162000288565b8114620002af57600080fd5b50565b600081519050620002c38162000298565b92915050565b60008060008060008060c08789031215620002e957620002e862000163565b5b6000620002f989828a01620001b6565b96505060206200030c89828a01620001f1565b95505060406200031f89828a016200022c565b94505060606200033289828a0162000271565b93505060806200034589828a01620002b2565b92505060a06200035889828a01620001f1565b9150509295509295509295565b7f4e487b7100000000000000000000000000000000000000000000000000000000600052602160045260246000fd5b60805160a05160c05160e0516101005161012051610140516101605161156f6200040f6000396000610a990152600081816107d80152610847015260006106a50152600061068201526000610661015260006106250152600081816102fa01526103f7015260008181610337015261038b015261156f6000f3fe6080604052600436106100c25760003560e01c8063473f1ddc1161007f57806391ad27b41161005957806391ad27b414610238578063ce10b1fb14610263578063e55ae4e81461028e578063fd6673f5146102cb576100c2565b8063473f1ddc146101a45780635f1b0fd8146101cf5780636e04ff0d146101fa576100c2565b806309bc33a7146100c7578063115cbaf5146100f25780631fe543e31461011d5780632cfcc53914610146578063320229eb146101505780634585e33b1461017b575b600080fd5b3480156100d357600080fd5b506100dc6102f6565b6040516100e99190610c86565b60405180910390f35b3480156100fe57600080fd5b5061010761031e565b6040516101149190610d18565b60405180910390f35b34801561012957600080fd5b50610144600480360381019061013f9190610ecc565b610335565b005b61014e6103f5565b005b34801561015c57600080fd5b50610165610564565b6040516101729190610c86565b60405180910390f35b34801561018757600080fd5b506101a2600480360381019061019d9190610f83565b61056e565b005b3480156101b057600080fd5b506101b961075e565b6040516101c69190611011565b60405180910390f35b3480156101db57600080fd5b506101e4610788565b6040516101f19190610c86565b60405180910390f35b34801561020657600080fd5b50610221600480360381019061021c91906110e1565b610795565b60405161022f9291906111c4565b60405180910390f35b34801561024457600080fd5b5061024d610843565b60405161025a9190610c86565b60405180910390f35b34801561026f57600080fd5b5061027861086b565b6040516102859190610c86565b60405180910390f35b34801561029a57600080fd5b506102b560048036038101906102b091906111f4565b61087a565b6040516102c29190611011565b60405180910390f35b3480156102d757600080fd5b506102e06108c1565b6040516102ed9190610c86565b60405180910390f35b60007f0000000000000000000000000000000000000000000000000000000000000000905090565b6000600160149054906101000a900460ff16905090565b7f000000000000000000000000000000000000000000000000000000000000000073ffffffffffffffffffffffffffffffffffffffff163373ffffffffffffffffffffffffffffffffffffffff16146103e757337f00000000000000000000000000000000000000000000000000000000000000006040517f1cf993f40000000000000000000000000000000000000000000000000000000081526004016103de929190611221565b60405180910390fd5b6103f182826108cd565b5050565b7f000000000000000000000000000000000000000000000000000000000000000034101561044f576040517fbd4e069500000000000000000000000000000000000000000000000000000000815260040160405180910390fd5b6000600181111561046357610462610ca1565b5b600160149054906101000a900460ff16600181111561048557610484610ca1565b5b146104bc576040517f1425571c00000000000000000000000000000000000000000000000000000000815260040160405180910390fd5b6000339080600181540180825580915050600190039060005260206000200160009091909190916101000a81548173ffffffffffffffffffffffffffffffffffffffff021916908373ffffffffffffffffffffffffffffffffffffffff1602179055503373ffffffffffffffffffffffffffffffffffffffff167f0805e1d667bddb8a95f0f09880cf94f403fb596ce79928d9f29b74203ba284d460405160405180910390a2565b6000600254905090565b600061058860405180602001604052806000815250610795565b509050806105f75747600080549050600160149054906101000a900460ff1660018111156105b9576105b8610ca1565b5b6040517f584327aa0000000000000000000000000000000000000000000000000000000081526004016105ee9392919061124a565b60405180910390fd5b60018060146101000a81548160ff0219169083600181111561061c5761061b610ca1565b5b021790555060007f000000000000000000000000000000000000000000000000000000000000000073ffffffffffffffffffffffffffffffffffffffff16635d3b1d307f00000000000000000000000000000000000000000000000000000000000000007f000000000000000000000000000000000000000000000000000000000000000060037f000000000000000000000000000000000000000000000000000000000000000060016040518663ffffffff1660e01b81526004016106e69594939291906112f9565b6020604051808303816000875af1158015610705573d6000803e3d6000fd5b505050506040513d601f19601f820116820180604052508101906107299190611361565b9050807fcd6e45c8998311cab7e9d4385596cac867e20a0587194b954fa3a731c93ce78b60405160405180910390a250505050565b6000600160009054906101000a900473ffffffffffffffffffffffffffffffffffffffff16905090565b6000600361ffff16905090565b600060606000600160149054906101000a900460ff1660018111156107bd576107bc610ca1565b5b600060018111156107d1576107d0610ca1565b5b14905060007f00000000000000000000000000000000000000000000000000000000000000006002544261080591906113bd565b11905060006001600080549050119050600080471190508380156108265750825b801561082f5750815b80156108385750805b955050505050915091565b60007f0000000000000000000000000000000000000000000000000000000000000000905090565b6000600163ffffffff16905090565b600080828154811061088f5761088e6113f1565b5b9060005260206000200160009054906101000a900473ffffffffffffffffffffffffffffffffffffffff169050919050565b60008080549050905090565b60008080549050826000815181106108e8576108e76113f1565b5b60200260200101516108fa919061144f565b90506000808281548110610911576109106113f1565b5b9060005260206000200160009054906101000a900473ffffffffffffffffffffffffffffffffffffffff16905080600160006101000a81548173ffffffffffffffffffffffffffffffffffffffff021916908373ffffffffffffffffffffffffffffffffffffffff1602179055506000600160146101000a81548160ff021916908360018111156109a5576109a4610ca1565b5b0217905550600067ffffffffffffffff8111156109c5576109c4610d89565b5b6040519080825280602002602001820160405280156109f35781602001602082028036833780820191505090505b5060009080519060200190610a09929190610bc6565b504260028190555060008173ffffffffffffffffffffffffffffffffffffffff16600a600947610a399190611480565b610a4391906114c2565b604051610a4f90611524565b60006040518083038185875af1925050503d8060008114610a8c576040519150601f19603f3d011682016040523d82523d6000602084013e610a91565b606091505b5050905060007f000000000000000000000000000000000000000000000000000000000000000073ffffffffffffffffffffffffffffffffffffffff16600a600147610add9190611480565b610ae791906114c2565b604051610af390611524565b60006040518083038185875af1925050503d8060008114610b30576040519150601f19603f3d011682016040523d82523d6000602084013e610b35565b606091505b50509050811580610b44575080155b15610b7b576040517fa1d04b3900000000000000000000000000000000000000000000000000000000815260040160405180910390fd5b8273ffffffffffffffffffffffffffffffffffffffff167f5b690ec4a06fe979403046eaeea5b3ce38524683c3001f662c8b5a829632f7df60405160405180910390a2505050505050565b828054828255906000526020600020908101928215610c3f579160200282015b82811115610c3e5782518260006101000a81548173ffffffffffffffffffffffffffffffffffffffff021916908373ffffffffffffffffffffffffffffffffffffffff16021790555091602001919060010190610be6565b5b509050610c4c9190610c50565b5090565b5b80821115610c69576000816000905550600101610c51565b5090565b6000819050919050565b610c8081610c6d565b82525050565b6000602082019050610c9b6000830184610c77565b92915050565b7f4e487b7100000000000000000000000000000000000000000000000000000000600052602160045260246000fd5b60028110610ce157610ce0610ca1565b5b50565b6000819050610cf282610cd0565b919050565b6000610d0282610ce4565b9050919050565b610d1281610cf7565b82525050565b6000602082019050610d2d6000830184610d09565b92915050565b6000604051905090565b600080fd5b600080fd5b610d5081610c6d565b8114610d5b57600080fd5b50565b600081359050610d6d81610d47565b92915050565b600080fd5b6000601f19601f8301169050919050565b7f4e487b7100000000000000000000000000000000000000000000000000000000600052604160045260246000fd5b610dc182610d78565b810181811067ffffffffffffffff82111715610de057610ddf610d89565b5b80604052505050565b6000610df3610d33565b9050610dff8282610db8565b919050565b600067ffffffffffffffff821115610e1f57610e1e610d89565b5b602082029050602081019050919050565b600080fd5b6000610e48610e4384610e04565b610de9565b90508083825260208201905060208402830185811115610e6b57610e6a610e30565b5b835b81811015610e945780610e808882610d5e565b845260208401935050602081019050610e6d565b5050509392505050565b600082601f830112610eb357610eb2610d73565b5b8135610ec3848260208601610e35565b91505092915050565b60008060408385031215610ee357610ee2610d3d565b5b6000610ef185828601610d5e565b925050602083013567ffffffffffffffff811115610f1257610f11610d42565b5b610f1e85828601610e9e565b9150509250929050565b600080fd5b60008083601f840112610f4357610f42610d73565b5b8235905067ffffffffffffffff811115610f6057610f5f610f28565b5b602083019150836001820283011115610f7c57610f7b610e30565b5b9250929050565b60008060208385031215610f9a57610f99610d3d565b5b600083013567ffffffffffffffff811115610fb857610fb7610d42565b5b610fc485828601610f2d565b92509250509250929050565b600073ffffffffffffffffffffffffffffffffffffffff82169050919050565b6000610ffb82610fd0565b9050919050565b61100b81610ff0565b82525050565b60006020820190506110266000830184611002565b92915050565b600080fd5b600067ffffffffffffffff82111561104c5761104b610d89565b5b61105582610d78565b9050602081019050919050565b82818337600083830152505050565b600061108461107f84611031565b610de9565b9050828152602081018484840111156110a05761109f61102c565b5b6110ab848285611062565b509392505050565b600082601f8301126110c8576110c7610d73565b5b81356110d8848260208601611071565b91505092915050565b6000602082840312156110f7576110f6610d3d565b5b600082013567ffffffffffffffff81111561111557611114610d42565b5b611121848285016110b3565b91505092915050565b60008115159050919050565b61113f8161112a565b82525050565b600081519050919050565b600082825260208201905092915050565b60005b8381101561117f578082015181840152602081019050611164565b60008484015250505050565b600061119682611145565b6111a08185611150565b93506111b0818560208601611161565b6111b981610d78565b840191505092915050565b60006040820190506111d96000830185611136565b81810360208301526111eb818461118b565b90509392505050565b60006020828403121561120a57611209610d3d565b5b600061121884828501610d5e565b91505092915050565b60006040820190506112366000830185611002565b6112436020830184611002565b9392505050565b600060608201905061125f6000830186610c77565b61126c6020830185610c77565b6112796040830184610c77565b949350505050565b6000819050919050565b61129481611281565b82525050565b600067ffffffffffffffff82169050919050565b6112b78161129a565b82525050565b600061ffff82169050919050565b6112d4816112bd565b82525050565b600063ffffffff82169050919050565b6112f3816112da565b82525050565b600060a08201905061130e600083018861128b565b61131b60208301876112ae565b61132860408301866112cb565b61133560608301856112ea565b61134260808301846112ea565b9695505050505050565b60008151905061135b81610d47565b92915050565b60006020828403121561137757611376610d3d565b5b60006113858482850161134c565b91505092915050565b7f4e487b7100000000000000000000000000000000000000000000000000000000600052601160045260246000fd5b60006113c882610c6d565b91506113d383610c6d565b92508282039050818111156113eb576113ea61138e565b5b92915050565b7f4e487b7100000000000000000000000000000000000000000000000000000000600052603260045260246000fd5b7f4e487b7100000000000000000000000000000000000000000000000000000000600052601260045260246000fd5b600061145a82610c6d565b915061146583610c6d565b92508261147557611474611420565b5b828206905092915050565b600061148b82610c6d565b915061149683610c6d565b92508282026114a481610c6d565b915082820484148315176114bb576114ba61138e565b5b5092915050565b60006114cd82610c6d565b91506114d883610c6d565b9250826114e8576114e7611420565b5b828204905092915050565b600081905092915050565b50565b600061150e6000836114f3565b9150611519826114fe565b600082019050919050565b600061152f82611501565b915081905091905056fea2646970667358221220348eff2dfc6433f79d89652f7fbeec7e09c07c6f54b28a05ac93087d9d69951164736f6c63430008110033",
  "linkReferences": {},
  "deployedLinkReferences": {}
}