{
  "_format": "hh-sol-artifact-1",
  "contractName": "FundMe",
  "sourceName": "contracts/FundMe.sol",
  "abi": [
    {
      "inputs": [
        {
          "internalType": "address",
          "name": "priceFeedAddress",
          "type": "address"
        }
      ],
      "stateMutability": "nonpayable",
      "type": "constructor"
    },
    {
      "inputs": [],
      "name": "FundMe__CallFail",
      "type": "error"
    },
    {
      "inputs": [],
      "name": "FundMe__LowInput",
      "type": "error"
    },
    {
      "inputs": [],
      "name": "FundMe__NotOwner",
      "type": "error"
    },
    {
      "stateMutability": "payable",
      "type": "fallback"
    },
    {
      "inputs": [],
      "name": "MINIMUM_USD",
      "outputs": [
        {
          "internalType": "uint256",
          "name": "",
          "type": "uint256"
        }
      ],
      "stateMutability": "view",
      "type": "function"
    },
    {
      "inputs": [],
      "name": "cheaperWithdraw",
      "outputs": [],
      "stateMutability": "nonpayable",
      "type": "function"
    },
    {
      "inputs": [],
      "name": "fund",
      "outputs": [],
      "stateMutability": "payable",
      "type": "function"
    },
    {
      "inputs": [
        {
          "internalType": "address",
          "name": "fundingAddress",
          "type": "address"
        }
      ],
      "name": "getAddressToAmountFunded",
      "outputs": [
        {
          "internalType": "uint256",
          "name": "",
          "type": "uint256"
        }
      ],
      "stateMutability": "view",
      "type": "function"
    },
    {
      "inputs": [],
      "name": "getOwner",
      "outputs": [
        {
          "internalType": "address",
          "name": "",
          "type": "address"
        }
      ],
      "stateMutability": "view",
      "type": "function"
    },
    {
      "inputs": [],
      "name": "getPriceFeed",
      "outputs": [
        {
          "internalType": "contract AggregatorV3Interface",
          "name": "",
          "type": "address"
        }
      ],
      "stateMutability": "view",
      "type": "function"
    },
    {
      "inputs": [
        {
          "internalType": "uint256",
          "name": "",
          "type": "uint256"
        }
      ],
      "name": "s_funders",
      "outputs": [
        {
          "internalType": "address",
          "name": "",
          "type": "address"
        }
      ],
      "stateMutability": "view",
      "type": "function"
    },
    {
      "inputs": [],
      "name": "withdraw",
      "outputs": [],
      "stateMutability": "nonpayable",
      "type": "function"
    },
    {
      "stateMutability": "payable",
      "type": "receive"
    }
  ],
  "bytecode": "0x60a06040523480156200001157600080fd5b50604051620011da380380620011da8339818101604052810190620000379190620000cd565b3373ffffffffffffffffffffffffffffffffffffffff1660808173ffffffffffffffffffffffffffffffffffffffff1660601b8152505080600260006101000a81548173ffffffffffffffffffffffffffffffffffffffff021916908373ffffffffffffffffffffffffffffffffffffffff1602179055505062000152565b600081519050620000c78162000138565b92915050565b600060208284031215620000e657620000e562000133565b5b6000620000f684828501620000b6565b91505092915050565b60006200010c8262000113565b9050919050565b600073ffffffffffffffffffffffffffffffffffffffff82169050919050565b600080fd5b6200014381620000ff565b81146200014f57600080fd5b50565b60805160601c6110546200018660003960008181610348015281816105cd0152818161061d015261081301526110546000f3fe60806040526004361061007f5760003560e01c8063893d20e81161004e578063893d20e8146101545780639e87a5cd1461017f578063b60d4288146101aa578063be2693f0146101b45761008e565b80630343fb25146100985780633ccfd60b146100d557806354861af7146100ec5780636b69a592146101295761008e565b3661008e5761008c6101cb565b005b6100966101cb565b005b3480156100a457600080fd5b506100bf60048036038101906100ba9190610a95565b6102fd565b6040516100cc9190610c05565b60405180910390f35b3480156100e157600080fd5b506100ea610346565b005b3480156100f857600080fd5b50610113600480360381019061010e9190610ac2565b61057d565b6040516101209190610bcf565b60405180910390f35b34801561013557600080fd5b5061013e6105bc565b60405161014b9190610c05565b60405180910390f35b34801561016057600080fd5b506101696105c9565b6040516101769190610bcf565b60405180910390f35b34801561018b57600080fd5b506101946105f1565b6040516101a19190610bea565b60405180910390f35b6101b26101cb565b005b3480156101c057600080fd5b506101c961061b565b005b6802b5e3af16b188000061020a600260009054906101000a900473ffffffffffffffffffffffffffffffffffffffff16346108a990919063ffffffff16565b1015610242576040517f858432c900000000000000000000000000000000000000000000000000000000815260040160405180910390fd5b6000339080600181540180825580915050600190039060005260206000200160009091909190916101000a81548173ffffffffffffffffffffffffffffffffffffffff021916908373ffffffffffffffffffffffffffffffffffffffff16021790555034600160003373ffffffffffffffffffffffffffffffffffffffff1673ffffffffffffffffffffffffffffffffffffffff16815260200190815260200160002060008282546102f49190610c2b565b92505081905550565b6000600160008373ffffffffffffffffffffffffffffffffffffffff1673ffffffffffffffffffffffffffffffffffffffff168152602001908152602001600020549050919050565b7f000000000000000000000000000000000000000000000000000000000000000073ffffffffffffffffffffffffffffffffffffffff163373ffffffffffffffffffffffffffffffffffffffff16146103cb576040517f579610db00000000000000000000000000000000000000000000000000000000815260040160405180910390fd5b60005b6000805490508110156104765760008082815481106103f0576103ef610f5c565b5b9060005260206000200160009054906101000a900473ffffffffffffffffffffffffffffffffffffffff1690506000600160008373ffffffffffffffffffffffffffffffffffffffff1673ffffffffffffffffffffffffffffffffffffffff1681526020019081526020016000208190555050808061046e90610eb5565b9150506103ce565b50600067ffffffffffffffff81111561049257610491610f8b565b5b6040519080825280602002602001820160405280156104c05781602001602082028036833780820191505090505b50600090805190602001906104d6929190610985565b5060003373ffffffffffffffffffffffffffffffffffffffff16476040516104fd90610bba565b60006040518083038185875af1925050503d806000811461053a576040519150601f19603f3d011682016040523d82523d6000602084013e61053f565b606091505b505090508061057a576040517f507766e200000000000000000000000000000000000000000000000000000000815260040160405180910390fd5b50565b6000818154811061058d57600080fd5b906000526020600020016000915054906101000a900473ffffffffffffffffffffffffffffffffffffffff1681565b6802b5e3af16b188000081565b60007f0000000000000000000000000000000000000000000000000000000000000000905090565b6000600260009054906101000a900473ffffffffffffffffffffffffffffffffffffffff16905090565b7f000000000000000000000000000000000000000000000000000000000000000073ffffffffffffffffffffffffffffffffffffffff163373ffffffffffffffffffffffffffffffffffffffff16146106a0576040517f579610db00000000000000000000000000000000000000000000000000000000815260040160405180910390fd5b60008080548060200260200160405190810160405280929190818152602001828054801561072357602002820191906000526020600020905b8160009054906101000a900473ffffffffffffffffffffffffffffffffffffffff1673ffffffffffffffffffffffffffffffffffffffff16815260200190600101908083116106d9575b5050505050905060005b81518110156107ae57600082828151811061074b5761074a610f5c565b5b602002602001015190506000600160008373ffffffffffffffffffffffffffffffffffffffff1673ffffffffffffffffffffffffffffffffffffffff168152602001908152602001600020819055505080806107a690610eb5565b91505061072d565b50600067ffffffffffffffff8111156107ca576107c9610f8b565b5b6040519080825280602002602001820160405280156107f85781602001602082028036833780820191505090505b506000908051906020019061080e929190610985565b5060007f000000000000000000000000000000000000000000000000000000000000000073ffffffffffffffffffffffffffffffffffffffff164760405161085590610bba565b60006040518083038185875af1925050503d8060008114610892576040519150601f19603f3d011682016040523d82523d6000602084013e610897565b606091505b50509050806108a557600080fd5b5050565b6000806108b5836108e5565b90506000670de0b6b3a764000085836108ce9190610dc9565b6108d89190610c81565b9050809250505092915050565b6000808273ffffffffffffffffffffffffffffffffffffffff1663feaf968c6040518163ffffffff1660e01b815260040160a06040518083038186803b15801561092e57600080fd5b505afa158015610942573d6000803e3d6000fd5b505050506040513d601f19601f820116820180604052508101906109669190610aef565b5050509150506402540be4008161097d9190610cb2565b915050919050565b8280548282559060005260206000209081019282156109fe579160200282015b828111156109fd5782518260006101000a81548173ffffffffffffffffffffffffffffffffffffffff021916908373ffffffffffffffffffffffffffffffffffffffff160217905550916020019190600101906109a5565b5b509050610a0b9190610a0f565b5090565b5b80821115610a28576000816000905550600101610a10565b5090565b600081359050610a3b81610fc2565b92915050565b600081519050610a5081610fd9565b92915050565b600081359050610a6581610ff0565b92915050565b600081519050610a7a81610ff0565b92915050565b600081519050610a8f81611007565b92915050565b600060208284031215610aab57610aaa610fba565b5b6000610ab984828501610a2c565b91505092915050565b600060208284031215610ad857610ad7610fba565b5b6000610ae684828501610a56565b91505092915050565b600080600080600060a08688031215610b0b57610b0a610fba565b5b6000610b1988828901610a80565b9550506020610b2a88828901610a41565b9450506040610b3b88828901610a6b565b9350506060610b4c88828901610a6b565b9250506080610b5d88828901610a80565b9150509295509295909350565b610b7381610e23565b82525050565b610b8281610e7f565b82525050565b6000610b95600083610c20565b9150610ba082610fbf565b600082019050919050565b610bb481610e5f565b82525050565b6000610bc582610b88565b9150819050919050565b6000602082019050610be46000830184610b6a565b92915050565b6000602082019050610bff6000830184610b79565b92915050565b6000602082019050610c1a6000830184610bab565b92915050565b600081905092915050565b6000610c3682610e5f565b9150610c4183610e5f565b9250827fffffffffffffffffffffffffffffffffffffffffffffffffffffffffffffffff03821115610c7657610c75610efe565b5b828201905092915050565b6000610c8c82610e5f565b9150610c9783610e5f565b925082610ca757610ca6610f2d565b5b828204905092915050565b6000610cbd82610e35565b9150610cc883610e35565b9250827f7fffffffffffffffffffffffffffffffffffffffffffffffffffffffffffffff0482116000841360008413161615610d0757610d06610efe565b5b817f80000000000000000000000000000000000000000000000000000000000000000583126000841260008413161615610d4457610d43610efe565b5b827f80000000000000000000000000000000000000000000000000000000000000000582126000841360008412161615610d8157610d80610efe565b5b827f7fffffffffffffffffffffffffffffffffffffffffffffffffffffffffffffff0582126000841260008412161615610dbe57610dbd610efe565b5b828202905092915050565b6000610dd482610e5f565b9150610ddf83610e5f565b9250817fffffffffffffffffffffffffffffffffffffffffffffffffffffffffffffffff0483118215151615610e1857610e17610efe565b5b828202905092915050565b6000610e2e82610e3f565b9050919050565b6000819050919050565b600073ffffffffffffffffffffffffffffffffffffffff82169050919050565b6000819050919050565b600069ffffffffffffffffffff82169050919050565b6000610e8a82610e91565b9050919050565b6000610e9c82610ea3565b9050919050565b6000610eae82610e3f565b9050919050565b6000610ec082610e5f565b91507fffffffffffffffffffffffffffffffffffffffffffffffffffffffffffffffff821415610ef357610ef2610efe565b5b600182019050919050565b7f4e487b7100000000000000000000000000000000000000000000000000000000600052601160045260246000fd5b7f4e487b7100000000000000000000000000000000000000000000000000000000600052601260045260246000fd5b7f4e487b7100000000000000000000000000000000000000000000000000000000600052603260045260246000fd5b7f4e487b7100000000000000000000000000000000000000000000000000000000600052604160045260246000fd5b600080fd5b50565b610fcb81610e23565b8114610fd657600080fd5b50565b610fe281610e35565b8114610fed57600080fd5b50565b610ff981610e5f565b811461100457600080fd5b50565b61101081610e69565b811461101b57600080fd5b5056fea264697066735822122024681ab71ddf7fa5ab5d9d94a299178328a61c4e6d1a3746612883d144d6f10864736f6c63430008070033",
  "linkReferences": {},
  "deployedLinkReferences": {}
}