{
  "_format": "hh-sol-artifact-1",
  "contractName": "FundMe",
  "sourceName": "contracts/FundMe.sol",
  "abi": [
    {
      "inputs": [
        {
          "internalType": "address",
          "name": "priceFeedAddress",
          "type": "address"
        }
      ],
      "stateMutability": "nonpayable",
      "type": "constructor"
    },
    {
      "inputs": [],
      "name": "FundMe__CallFail",
      "type": "error"
    },
    {
      "inputs": [],
      "name": "FundMe__NotOwner",
      "type": "error"
    },
    {
      "stateMutability": "payable",
      "type": "fallback"
    },
    {
      "inputs": [],
      "name": "MINIMUM_USD",
      "outputs": [
        {
          "internalType": "uint256",
          "name": "",
          "type": "uint256"
        }
      ],
      "stateMutability": "view",
      "type": "function"
    },
    {
      "inputs": [],
      "name": "cheaperWithdraw",
      "outputs": [],
      "stateMutability": "nonpayable",
      "type": "function"
    },
    {
      "inputs": [],
      "name": "fund",
      "outputs": [],
      "stateMutability": "payable",
      "type": "function"
    },
    {
      "inputs": [
        {
          "internalType": "address",
          "name": "fundingAddress",
          "type": "address"
        }
      ],
      "name": "getAddressToAmountFunded",
      "outputs": [
        {
          "internalType": "uint256",
          "name": "",
          "type": "uint256"
        }
      ],
      "stateMutability": "view",
      "type": "function"
    },
    {
      "inputs": [],
      "name": "getPriceFeed",
      "outputs": [
        {
          "internalType": "contract AggregatorV3Interface",
          "name": "",
          "type": "address"
        }
      ],
      "stateMutability": "view",
      "type": "function"
    },
    {
      "inputs": [
        {
          "internalType": "uint256",
          "name": "",
          "type": "uint256"
        }
      ],
      "name": "s_funders",
      "outputs": [
        {
          "internalType": "address",
          "name": "",
          "type": "address"
        }
      ],
      "stateMutability": "view",
      "type": "function"
    },
    {
      "inputs": [],
      "name": "withdraw",
      "outputs": [],
      "stateMutability": "nonpayable",
      "type": "function"
    },
    {
      "stateMutability": "payable",
      "type": "receive"
    }
  ],
  "bytecode": "0x60a06040523480156200001157600080fd5b50604051620011fb380380620011fb8339818101604052810190620000379190620000cd565b3373ffffffffffffffffffffffffffffffffffffffff1660808173ffffffffffffffffffffffffffffffffffffffff1660601b8152505080600260006101000a81548173ffffffffffffffffffffffffffffffffffffffff021916908373ffffffffffffffffffffffffffffffffffffffff1602179055505062000152565b600081519050620000c78162000138565b92915050565b600060208284031215620000e657620000e562000133565b5b6000620000f684828501620000b6565b91505092915050565b60006200010c8262000113565b9050919050565b600073ffffffffffffffffffffffffffffffffffffffff82169050919050565b600080fd5b6200014381620000ff565b81146200014f57600080fd5b50565b60805160601c61107c6200017f6000396000818161031b015281816105c801526107be015261107c6000f3fe6080604052600436106100745760003560e01c80636b69a5921161004e5780636b69a5921461011e5780639e87a5cd14610149578063b60d428814610174578063be2693f01461017e57610083565b80630343fb251461008d5780633ccfd60b146100ca57806354861af7146100e157610083565b3661008357610081610195565b005b61008b610195565b005b34801561009957600080fd5b506100b460048036038101906100af9190610a40565b6102d0565b6040516100c19190610bf3565b60405180910390f35b3480156100d657600080fd5b506100df610319565b005b3480156100ed57600080fd5b5061010860048036038101906101039190610a6d565b610550565b6040516101159190610b9d565b60405180910390f35b34801561012a57600080fd5b5061013361058f565b6040516101409190610bf3565b60405180910390f35b34801561015557600080fd5b5061015e61059c565b60405161016b9190610bb8565b60405180910390f35b61017c610195565b005b34801561018a57600080fd5b506101936105c6565b005b6802b5e3af16b18800006101d4600260009054906101000a900473ffffffffffffffffffffffffffffffffffffffff163461085490919063ffffffff16565b1015610215576040517f08c379a000000000000000000000000000000000000000000000000000000000815260040161020c90610bd3565b60405180910390fd5b6000339080600181540180825580915050600190039060005260206000200160009091909190916101000a81548173ffffffffffffffffffffffffffffffffffffffff021916908373ffffffffffffffffffffffffffffffffffffffff16021790555034600160003373ffffffffffffffffffffffffffffffffffffffff1673ffffffffffffffffffffffffffffffffffffffff16815260200190815260200160002060008282546102c79190610c2a565b92505081905550565b6000600160008373ffffffffffffffffffffffffffffffffffffffff1673ffffffffffffffffffffffffffffffffffffffff168152602001908152602001600020549050919050565b7f000000000000000000000000000000000000000000000000000000000000000073ffffffffffffffffffffffffffffffffffffffff163373ffffffffffffffffffffffffffffffffffffffff161461039e576040517f579610db00000000000000000000000000000000000000000000000000000000815260040160405180910390fd5b60005b6000805490508110156104495760008082815481106103c3576103c2610f5b565b5b9060005260206000200160009054906101000a900473ffffffffffffffffffffffffffffffffffffffff1690506000600160008373ffffffffffffffffffffffffffffffffffffffff1673ffffffffffffffffffffffffffffffffffffffff1681526020019081526020016000208190555050808061044190610eb4565b9150506103a1565b50600067ffffffffffffffff81111561046557610464610f8a565b5b6040519080825280602002602001820160405280156104935781602001602082028036833780820191505090505b50600090805190602001906104a9929190610930565b5060003373ffffffffffffffffffffffffffffffffffffffff16476040516104d090610b88565b60006040518083038185875af1925050503d806000811461050d576040519150601f19603f3d011682016040523d82523d6000602084013e610512565b606091505b505090508061054d576040517f507766e200000000000000000000000000000000000000000000000000000000815260040160405180910390fd5b50565b6000818154811061056057600080fd5b906000526020600020016000915054906101000a900473ffffffffffffffffffffffffffffffffffffffff1681565b6802b5e3af16b188000081565b6000600260009054906101000a900473ffffffffffffffffffffffffffffffffffffffff16905090565b7f000000000000000000000000000000000000000000000000000000000000000073ffffffffffffffffffffffffffffffffffffffff163373ffffffffffffffffffffffffffffffffffffffff161461064b576040517f579610db00000000000000000000000000000000000000000000000000000000815260040160405180910390fd5b6000808054806020026020016040519081016040528092919081815260200182805480156106ce57602002820191906000526020600020905b8160009054906101000a900473ffffffffffffffffffffffffffffffffffffffff1673ffffffffffffffffffffffffffffffffffffffff1681526020019060010190808311610684575b5050505050905060005b81518110156107595760008282815181106106f6576106f5610f5b565b5b602002602001015190506000600160008373ffffffffffffffffffffffffffffffffffffffff1673ffffffffffffffffffffffffffffffffffffffff1681526020019081526020016000208190555050808061075190610eb4565b9150506106d8565b50600067ffffffffffffffff81111561077557610774610f8a565b5b6040519080825280602002602001820160405280156107a35781602001602082028036833780820191505090505b50600090805190602001906107b9929190610930565b5060007f000000000000000000000000000000000000000000000000000000000000000073ffffffffffffffffffffffffffffffffffffffff164760405161080090610b88565b60006040518083038185875af1925050503d806000811461083d576040519150601f19603f3d011682016040523d82523d6000602084013e610842565b606091505b505090508061085057600080fd5b5050565b60008061086083610890565b90506000670de0b6b3a764000085836108799190610dc8565b6108839190610c80565b9050809250505092915050565b6000808273ffffffffffffffffffffffffffffffffffffffff1663feaf968c6040518163ffffffff1660e01b815260040160a06040518083038186803b1580156108d957600080fd5b505afa1580156108ed573d6000803e3d6000fd5b505050506040513d601f19601f820116820180604052508101906109119190610a9a565b5050509150506402540be400816109289190610cb1565b915050919050565b8280548282559060005260206000209081019282156109a9579160200282015b828111156109a85782518260006101000a81548173ffffffffffffffffffffffffffffffffffffffff021916908373ffffffffffffffffffffffffffffffffffffffff16021790555091602001919060010190610950565b5b5090506109b691906109ba565b5090565b5b808211156109d35760008160009055506001016109bb565b5090565b6000813590506109e681610fea565b92915050565b6000815190506109fb81611001565b92915050565b600081359050610a1081611018565b92915050565b600081519050610a2581611018565b92915050565b600081519050610a3a8161102f565b92915050565b600060208284031215610a5657610a55610fb9565b5b6000610a64848285016109d7565b91505092915050565b600060208284031215610a8357610a82610fb9565b5b6000610a9184828501610a01565b91505092915050565b600080600080600060a08688031215610ab657610ab5610fb9565b5b6000610ac488828901610a2b565b9550506020610ad5888289016109ec565b9450506040610ae688828901610a16565b9350506060610af788828901610a16565b9250506080610b0888828901610a2b565b9150509295509295909350565b610b1e81610e22565b82525050565b610b2d81610e7e565b82525050565b6000610b40601b83610c19565b9150610b4b82610fbe565b602082019050919050565b6000610b63600083610c0e565b9150610b6e82610fe7565b600082019050919050565b610b8281610e5e565b82525050565b6000610b9382610b56565b9150819050919050565b6000602082019050610bb26000830184610b15565b92915050565b6000602082019050610bcd6000830184610b24565b92915050565b60006020820190508181036000830152610bec81610b33565b9050919050565b6000602082019050610c086000830184610b79565b92915050565b600081905092915050565b600082825260208201905092915050565b6000610c3582610e5e565b9150610c4083610e5e565b9250827fffffffffffffffffffffffffffffffffffffffffffffffffffffffffffffffff03821115610c7557610c74610efd565b5b828201905092915050565b6000610c8b82610e5e565b9150610c9683610e5e565b925082610ca657610ca5610f2c565b5b828204905092915050565b6000610cbc82610e34565b9150610cc783610e34565b9250827f7fffffffffffffffffffffffffffffffffffffffffffffffffffffffffffffff0482116000841360008413161615610d0657610d05610efd565b5b817f80000000000000000000000000000000000000000000000000000000000000000583126000841260008413161615610d4357610d42610efd565b5b827f80000000000000000000000000000000000000000000000000000000000000000582126000841360008412161615610d8057610d7f610efd565b5b827f7fffffffffffffffffffffffffffffffffffffffffffffffffffffffffffffff0582126000841260008412161615610dbd57610dbc610efd565b5b828202905092915050565b6000610dd382610e5e565b9150610dde83610e5e565b9250817fffffffffffffffffffffffffffffffffffffffffffffffffffffffffffffffff0483118215151615610e1757610e16610efd565b5b828202905092915050565b6000610e2d82610e3e565b9050919050565b6000819050919050565b600073ffffffffffffffffffffffffffffffffffffffff82169050919050565b6000819050919050565b600069ffffffffffffffffffff82169050919050565b6000610e8982610e90565b9050919050565b6000610e9b82610ea2565b9050919050565b6000610ead82610e3e565b9050919050565b6000610ebf82610e5e565b91507fffffffffffffffffffffffffffffffffffffffffffffffffffffffffffffffff821415610ef257610ef1610efd565b5b600182019050919050565b7f4e487b7100000000000000000000000000000000000000000000000000000000600052601160045260246000fd5b7f4e487b7100000000000000000000000000000000000000000000000000000000600052601260045260246000fd5b7f4e487b7100000000000000000000000000000000000000000000000000000000600052603260045260246000fd5b7f4e487b7100000000000000000000000000000000000000000000000000000000600052604160045260246000fd5b600080fd5b7f596f75206e65656420746f207370656e64206d6f726520455448210000000000600082015250565b50565b610ff381610e22565b8114610ffe57600080fd5b50565b61100a81610e34565b811461101557600080fd5b50565b61102181610e5e565b811461102c57600080fd5b50565b61103881610e68565b811461104357600080fd5b5056fea2646970667358221220604715fddeffb825b4185632e6a08487d2bfb5fc22a2c2618a233d1e6a55709164736f6c63430008070033",
  "linkReferences": {},
  "deployedLinkReferences": {}
}