{
  "_format": "hh-sol-artifact-1",
  "contractName": "FundMe",
  "sourceName": "contracts/FundMe.sol",
  "abi": [
    {
      "inputs": [
        {
          "internalType": "address",
          "name": "priceFeedAddress",
          "type": "address"
        }
      ],
      "stateMutability": "nonpayable",
      "type": "constructor"
    },
    {
      "inputs": [],
      "name": "FundMe__CallFail",
      "type": "error"
    },
    {
      "inputs": [],
      "name": "FundMe__NotOwner",
      "type": "error"
    },
    {
      "stateMutability": "payable",
      "type": "fallback"
    },
    {
      "inputs": [],
      "name": "MINIMUM_USD",
      "outputs": [
        {
          "internalType": "uint256",
          "name": "",
          "type": "uint256"
        }
      ],
      "stateMutability": "view",
      "type": "function"
    },
    {
      "inputs": [],
      "name": "fund",
      "outputs": [],
      "stateMutability": "payable",
      "type": "function"
    },
    {
      "inputs": [
        {
          "internalType": "address",
          "name": "fundingAddress",
          "type": "address"
        }
      ],
      "name": "getAddressToAmountFunded",
      "outputs": [
        {
          "internalType": "uint256",
          "name": "",
          "type": "uint256"
        }
      ],
      "stateMutability": "view",
      "type": "function"
    },
    {
      "inputs": [],
      "name": "getPriceFeed",
      "outputs": [
        {
          "internalType": "contract AggregatorV3Interface",
          "name": "",
          "type": "address"
        }
      ],
      "stateMutability": "view",
      "type": "function"
    },
    {
      "inputs": [],
      "name": "withdraw",
      "outputs": [],
      "stateMutability": "nonpayable",
      "type": "function"
    },
    {
      "stateMutability": "payable",
      "type": "receive"
    }
  ],
  "bytecode": "0x60a060405234801561001057600080fd5b50604051610e27380380610e27833981810160405281019061003291906100c5565b3373ffffffffffffffffffffffffffffffffffffffff1660808173ffffffffffffffffffffffffffffffffffffffff1660601b8152505080600260006101000a81548173ffffffffffffffffffffffffffffffffffffffff021916908373ffffffffffffffffffffffffffffffffffffffff16021790555050610140565b6000815190506100bf81610129565b92915050565b6000602082840312156100db576100da610124565b5b60006100e9848285016100b0565b91505092915050565b60006100fd82610104565b9050919050565b600073ffffffffffffffffffffffffffffffffffffffff82169050919050565b600080fd5b610132816100f2565b811461013d57600080fd5b50565b60805160601c610cc961015e60003960006102a10152610cc96000f3fe60806040526004361061004e5760003560e01c80630343fb25146100675780633ccfd60b146100a45780636b69a592146100bb5780639e87a5cd146100e6578063b60d4288146101115761005d565b3661005d5761005b61011b565b005b61006561011b565b005b34801561007357600080fd5b5061008e600480360381019061008991906106e4565b610256565b60405161009b9190610840565b60405180910390f35b3480156100b057600080fd5b506100b961029f565b005b3480156100c757600080fd5b506100d06104d6565b6040516100dd9190610840565b60405180910390f35b3480156100f257600080fd5b506100fb6104e3565b6040516101089190610805565b60405180910390f35b61011961011b565b005b6802b5e3af16b188000061015a600260009054906101000a900473ffffffffffffffffffffffffffffffffffffffff163461050d90919063ffffffff16565b101561019b576040517f08c379a000000000000000000000000000000000000000000000000000000000815260040161019290610820565b60405180910390fd5b6000339080600181540180825580915050600190039060005260206000200160009091909190916101000a81548173ffffffffffffffffffffffffffffffffffffffff021916908373ffffffffffffffffffffffffffffffffffffffff16021790555034600160003373ffffffffffffffffffffffffffffffffffffffff1673ffffffffffffffffffffffffffffffffffffffff168152602001908152602001600020600082825461024d9190610877565b92505081905550565b6000600160008373ffffffffffffffffffffffffffffffffffffffff1673ffffffffffffffffffffffffffffffffffffffff168152602001908152602001600020549050919050565b7f000000000000000000000000000000000000000000000000000000000000000073ffffffffffffffffffffffffffffffffffffffff163373ffffffffffffffffffffffffffffffffffffffff1614610324576040517f579610db00000000000000000000000000000000000000000000000000000000815260040160405180910390fd5b60005b6000805490508110156103cf57600080828154811061034957610348610ba8565b5b9060005260206000200160009054906101000a900473ffffffffffffffffffffffffffffffffffffffff1690506000600160008373ffffffffffffffffffffffffffffffffffffffff1673ffffffffffffffffffffffffffffffffffffffff168152602001908152602001600020819055505080806103c790610b01565b915050610327565b50600067ffffffffffffffff8111156103eb576103ea610bd7565b5b6040519080825280602002602001820160405280156104195781602001602082028036833780820191505090505b506000908051906020019061042f9291906105e9565b5060003373ffffffffffffffffffffffffffffffffffffffff1647604051610456906107f0565b60006040518083038185875af1925050503d8060008114610493576040519150601f19603f3d011682016040523d82523d6000602084013e610498565b606091505b50509050806104d3576040517f507766e200000000000000000000000000000000000000000000000000000000815260040160405180910390fd5b50565b6802b5e3af16b188000081565b6000600260009054906101000a900473ffffffffffffffffffffffffffffffffffffffff16905090565b60008061051983610549565b90506000670de0b6b3a764000085836105329190610a15565b61053c91906108cd565b9050809250505092915050565b6000808273ffffffffffffffffffffffffffffffffffffffff1663feaf968c6040518163ffffffff1660e01b815260040160a06040518083038186803b15801561059257600080fd5b505afa1580156105a6573d6000803e3d6000fd5b505050506040513d601f19601f820116820180604052508101906105ca9190610711565b5050509150506402540be400816105e191906108fe565b915050919050565b828054828255906000526020600020908101928215610662579160200282015b828111156106615782518260006101000a81548173ffffffffffffffffffffffffffffffffffffffff021916908373ffffffffffffffffffffffffffffffffffffffff16021790555091602001919060010190610609565b5b50905061066f9190610673565b5090565b5b8082111561068c576000816000905550600101610674565b5090565b60008135905061069f81610c37565b92915050565b6000815190506106b481610c4e565b92915050565b6000815190506106c981610c65565b92915050565b6000815190506106de81610c7c565b92915050565b6000602082840312156106fa576106f9610c06565b5b600061070884828501610690565b91505092915050565b600080600080600060a0868803121561072d5761072c610c06565b5b600061073b888289016106cf565b955050602061074c888289016106a5565b945050604061075d888289016106ba565b935050606061076e888289016106ba565b925050608061077f888289016106cf565b9150509295509295909350565b61079581610acb565b82525050565b60006107a8601b83610866565b91506107b382610c0b565b602082019050919050565b60006107cb60008361085b565b91506107d682610c34565b600082019050919050565b6107ea81610aab565b82525050565b60006107fb826107be565b9150819050919050565b600060208201905061081a600083018461078c565b92915050565b600060208201905081810360008301526108398161079b565b9050919050565b600060208201905061085560008301846107e1565b92915050565b600081905092915050565b600082825260208201905092915050565b600061088282610aab565b915061088d83610aab565b9250827fffffffffffffffffffffffffffffffffffffffffffffffffffffffffffffffff038211156108c2576108c1610b4a565b5b828201905092915050565b60006108d882610aab565b91506108e383610aab565b9250826108f3576108f2610b79565b5b828204905092915050565b600061090982610a81565b915061091483610a81565b9250827f7fffffffffffffffffffffffffffffffffffffffffffffffffffffffffffffff048211600084136000841316161561095357610952610b4a565b5b817f800000000000000000000000000000000000000000000000000000000000000005831260008412600084131616156109905761098f610b4a565b5b827f800000000000000000000000000000000000000000000000000000000000000005821260008413600084121616156109cd576109cc610b4a565b5b827f7fffffffffffffffffffffffffffffffffffffffffffffffffffffffffffffff0582126000841260008412161615610a0a57610a09610b4a565b5b828202905092915050565b6000610a2082610aab565b9150610a2b83610aab565b9250817fffffffffffffffffffffffffffffffffffffffffffffffffffffffffffffffff0483118215151615610a6457610a63610b4a565b5b828202905092915050565b6000610a7a82610a8b565b9050919050565b6000819050919050565b600073ffffffffffffffffffffffffffffffffffffffff82169050919050565b6000819050919050565b600069ffffffffffffffffffff82169050919050565b6000610ad682610add565b9050919050565b6000610ae882610aef565b9050919050565b6000610afa82610a8b565b9050919050565b6000610b0c82610aab565b91507fffffffffffffffffffffffffffffffffffffffffffffffffffffffffffffffff821415610b3f57610b3e610b4a565b5b600182019050919050565b7f4e487b7100000000000000000000000000000000000000000000000000000000600052601160045260246000fd5b7f4e487b7100000000000000000000000000000000000000000000000000000000600052601260045260246000fd5b7f4e487b7100000000000000000000000000000000000000000000000000000000600052603260045260246000fd5b7f4e487b7100000000000000000000000000000000000000000000000000000000600052604160045260246000fd5b600080fd5b7f596f75206e65656420746f207370656e64206d6f726520455448210000000000600082015250565b50565b610c4081610a6f565b8114610c4b57600080fd5b50565b610c5781610a81565b8114610c6257600080fd5b50565b610c6e81610aab565b8114610c7957600080fd5b50565b610c8581610ab5565b8114610c9057600080fd5b5056fea264697066735822122080a847da3b2c93975c476960e989d60b068d7014ecdb6839acfbd4e289873c5964736f6c63430008070033",
  "linkReferences": {},
  "deployedLinkReferences": {}
}