{
  "_format": "hh-sol-artifact-1",
  "contractName": "FundMe",
  "sourceName": "contracts/FundMe.sol",
  "abi": [
    {
      "inputs": [
        {
          "internalType": "address",
          "name": "priceFeedAddress",
          "type": "address"
        }
      ],
      "stateMutability": "nonpayable",
      "type": "constructor"
    },
    {
      "inputs": [],
      "name": "FundMe__CallFail",
      "type": "error"
    },
    {
      "inputs": [],
      "name": "FundMe__NotOwner",
      "type": "error"
    },
    {
      "stateMutability": "payable",
      "type": "fallback"
    },
    {
      "inputs": [],
      "name": "MINIMUM_USD",
      "outputs": [
        {
          "internalType": "uint256",
          "name": "",
          "type": "uint256"
        }
      ],
      "stateMutability": "view",
      "type": "function"
    },
    {
      "inputs": [
        {
          "internalType": "address",
          "name": "",
          "type": "address"
        }
      ],
      "name": "addressToAmountFunded",
      "outputs": [
        {
          "internalType": "uint256",
          "name": "",
          "type": "uint256"
        }
      ],
      "stateMutability": "view",
      "type": "function"
    },
    {
      "inputs": [],
      "name": "fund",
      "outputs": [],
      "stateMutability": "payable",
      "type": "function"
    },
    {
      "inputs": [
        {
          "internalType": "uint256",
          "name": "",
          "type": "uint256"
        }
      ],
      "name": "funders",
      "outputs": [
        {
          "internalType": "address",
          "name": "",
          "type": "address"
        }
      ],
      "stateMutability": "view",
      "type": "function"
    },
    {
      "inputs": [
        {
          "internalType": "address",
          "name": "fundingAddress",
          "type": "address"
        }
      ],
      "name": "getAddressToAmountFunded",
      "outputs": [
        {
          "internalType": "uint256",
          "name": "",
          "type": "uint256"
        }
      ],
      "stateMutability": "view",
      "type": "function"
    },
    {
      "inputs": [],
      "name": "getPriceFeed",
      "outputs": [
        {
          "internalType": "contract AggregatorV3Interface",
          "name": "",
          "type": "address"
        }
      ],
      "stateMutability": "view",
      "type": "function"
    },
    {
      "inputs": [],
      "name": "i_owner",
      "outputs": [
        {
          "internalType": "address",
          "name": "",
          "type": "address"
        }
      ],
      "stateMutability": "view",
      "type": "function"
    },
    {
      "inputs": [],
      "name": "withdraw",
      "outputs": [],
      "stateMutability": "nonpayable",
      "type": "function"
    },
    {
      "stateMutability": "payable",
      "type": "receive"
    }
  ],
  "bytecode": "0x60a060405234801561001057600080fd5b50604051610f16380380610f1683398181016040528101906100329190610110565b3373ffffffffffffffffffffffffffffffffffffffff1660808173ffffffffffffffffffffffffffffffffffffffff168152505080600260006101000a81548173ffffffffffffffffffffffffffffffffffffffff021916908373ffffffffffffffffffffffffffffffffffffffff1602179055505061013d565b600080fd5b600073ffffffffffffffffffffffffffffffffffffffff82169050919050565b60006100dd826100b2565b9050919050565b6100ed816100d2565b81146100f857600080fd5b50565b60008151905061010a816100e4565b92915050565b600060208284031215610126576101256100ad565b5b6000610134848285016100fb565b91505092915050565b608051610db761015f6000396000818161037701526105fd0152610db76000f3fe60806040526004361061007f5760003560e01c80639e87a5cd1161004e5780639e87a5cd14610154578063b60d42881461017f578063dba6335f14610189578063dc0d3dff146101b45761008e565b80630343fb25146100985780633ccfd60b146100d55780633e47d6f3146100ec5780636b69a592146101295761008e565b3661008e5761008c6101f1565b005b6100966101f1565b005b3480156100a457600080fd5b506100bf60048036038101906100ba9190610835565b61032c565b6040516100cc919061087b565b60405180910390f35b3480156100e157600080fd5b506100ea610375565b005b3480156100f857600080fd5b50610113600480360381019061010e9190610835565b6105ac565b604051610120919061087b565b60405180910390f35b34801561013557600080fd5b5061013e6105c4565b60405161014b919061087b565b60405180910390f35b34801561016057600080fd5b506101696105d1565b60405161017691906108f5565b60405180910390f35b6101876101f1565b005b34801561019557600080fd5b5061019e6105fb565b6040516101ab919061091f565b60405180910390f35b3480156101c057600080fd5b506101db60048036038101906101d69190610966565b61061f565b6040516101e8919061091f565b60405180910390f35b6802b5e3af16b1880000610230600260009054906101000a900473ffffffffffffffffffffffffffffffffffffffff163461065e90919063ffffffff16565b1015610271576040517f08c379a0000000000000000000000000000000000000000000000000000000008152600401610268906109f0565b60405180910390fd5b6000339080600181540180825580915050600190039060005260206000200160009091909190916101000a81548173ffffffffffffffffffffffffffffffffffffffff021916908373ffffffffffffffffffffffffffffffffffffffff16021790555034600160003373ffffffffffffffffffffffffffffffffffffffff1673ffffffffffffffffffffffffffffffffffffffff16815260200190815260200160002060008282546103239190610a3f565b92505081905550565b6000600160008373ffffffffffffffffffffffffffffffffffffffff1673ffffffffffffffffffffffffffffffffffffffff168152602001908152602001600020549050919050565b7f000000000000000000000000000000000000000000000000000000000000000073ffffffffffffffffffffffffffffffffffffffff163373ffffffffffffffffffffffffffffffffffffffff16146103fa576040517f579610db00000000000000000000000000000000000000000000000000000000815260040160405180910390fd5b60005b6000805490508110156104a557600080828154811061041f5761041e610a73565b5b9060005260206000200160009054906101000a900473ffffffffffffffffffffffffffffffffffffffff1690506000600160008373ffffffffffffffffffffffffffffffffffffffff1673ffffffffffffffffffffffffffffffffffffffff1681526020019081526020016000208190555050808061049d90610aa2565b9150506103fd565b50600067ffffffffffffffff8111156104c1576104c0610aea565b5b6040519080825280602002602001820160405280156104ef5781602001602082028036833780820191505090505b506000908051906020019061050592919061072b565b5060003373ffffffffffffffffffffffffffffffffffffffff164760405161052c90610b4a565b60006040518083038185875af1925050503d8060008114610569576040519150601f19603f3d011682016040523d82523d6000602084013e61056e565b606091505b50509050806105a9576040517f507766e200000000000000000000000000000000000000000000000000000000815260040160405180910390fd5b50565b60016020528060005260406000206000915090505481565b6802b5e3af16b188000081565b6000600260009054906101000a900473ffffffffffffffffffffffffffffffffffffffff16905090565b7f000000000000000000000000000000000000000000000000000000000000000081565b6000818154811061062f57600080fd5b906000526020600020016000915054906101000a900473ffffffffffffffffffffffffffffffffffffffff1681565b60008061066a8361069a565b90506000670de0b6b3a764000085836106839190610b5f565b61068d9190610bd0565b9050809250505092915050565b6000808273ffffffffffffffffffffffffffffffffffffffff1663feaf968c6040518163ffffffff1660e01b815260040160a060405180830381865afa1580156106e8573d6000803e3d6000fd5b505050506040513d601f19601f8201168201806040525081019061070c9190610c8e565b5050509150506402540be400816107239190610d09565b915050919050565b8280548282559060005260206000209081019282156107a4579160200282015b828111156107a35782518260006101000a81548173ffffffffffffffffffffffffffffffffffffffff021916908373ffffffffffffffffffffffffffffffffffffffff1602179055509160200191906001019061074b565b5b5090506107b191906107b5565b5090565b5b808211156107ce5760008160009055506001016107b6565b5090565b600080fd5b600073ffffffffffffffffffffffffffffffffffffffff82169050919050565b6000610802826107d7565b9050919050565b610812816107f7565b811461081d57600080fd5b50565b60008135905061082f81610809565b92915050565b60006020828403121561084b5761084a6107d2565b5b600061085984828501610820565b91505092915050565b6000819050919050565b61087581610862565b82525050565b6000602082019050610890600083018461086c565b92915050565b6000819050919050565b60006108bb6108b66108b1846107d7565b610896565b6107d7565b9050919050565b60006108cd826108a0565b9050919050565b60006108df826108c2565b9050919050565b6108ef816108d4565b82525050565b600060208201905061090a60008301846108e6565b92915050565b610919816107f7565b82525050565b60006020820190506109346000830184610910565b92915050565b61094381610862565b811461094e57600080fd5b50565b6000813590506109608161093a565b92915050565b60006020828403121561097c5761097b6107d2565b5b600061098a84828501610951565b91505092915050565b600082825260208201905092915050565b7f596f75206e65656420746f207370656e64206d6f726520455448210000000000600082015250565b60006109da601b83610993565b91506109e5826109a4565b602082019050919050565b60006020820190508181036000830152610a09816109cd565b9050919050565b7f4e487b7100000000000000000000000000000000000000000000000000000000600052601160045260246000fd5b6000610a4a82610862565b9150610a5583610862565b9250828201905080821115610a6d57610a6c610a10565b5b92915050565b7f4e487b7100000000000000000000000000000000000000000000000000000000600052603260045260246000fd5b6000610aad82610862565b91507fffffffffffffffffffffffffffffffffffffffffffffffffffffffffffffffff8203610adf57610ade610a10565b5b600182019050919050565b7f4e487b7100000000000000000000000000000000000000000000000000000000600052604160045260246000fd5b600081905092915050565b50565b6000610b34600083610b19565b9150610b3f82610b24565b600082019050919050565b6000610b5582610b27565b9150819050919050565b6000610b6a82610862565b9150610b7583610862565b9250828202610b8381610862565b91508282048414831517610b9a57610b99610a10565b5b5092915050565b7f4e487b7100000000000000000000000000000000000000000000000000000000600052601260045260246000fd5b6000610bdb82610862565b9150610be683610862565b925082610bf657610bf5610ba1565b5b828204905092915050565b600069ffffffffffffffffffff82169050919050565b610c2081610c01565b8114610c2b57600080fd5b50565b600081519050610c3d81610c17565b92915050565b6000819050919050565b610c5681610c43565b8114610c6157600080fd5b50565b600081519050610c7381610c4d565b92915050565b600081519050610c888161093a565b92915050565b600080600080600060a08688031215610caa57610ca96107d2565b5b6000610cb888828901610c2e565b9550506020610cc988828901610c64565b9450506040610cda88828901610c79565b9350506060610ceb88828901610c79565b9250506080610cfc88828901610c2e565b9150509295509295909350565b6000610d1482610c43565b9150610d1f83610c43565b9250828202610d2d81610c43565b91507f80000000000000000000000000000000000000000000000000000000000000008414600084121615610d6557610d64610a10565b5b8282058414831517610d7a57610d79610a10565b5b509291505056fea26469706673582212207e3024005a425cd96339e5b36c7b469cac53dbccc3d42e28b7c812f6fca508b164736f6c63430008110033",
  "linkReferences": {},
  "deployedLinkReferences": {}
}