{
  "address": "0xCf7Ed3AccA5a467e9e704C703E8D87F634fB0Fc9",
  "abi": [
    {
      "inputs": [
        {
          "internalType": "address",
          "name": "vrfCoordinatorV2",
          "type": "address"
        },
        {
          "internalType": "uint256",
          "name": "entranceFee",
          "type": "uint256"
        },
        {
          "internalType": "bytes32",
          "name": "gasLane",
          "type": "bytes32"
        },
        {
          "internalType": "uint64",
          "name": "subscriptionId",
          "type": "uint64"
        },
        {
          "internalType": "uint32",
          "name": "callbackGasLimit",
          "type": "uint32"
        },
        {
          "internalType": "uint256",
          "name": "interval",
          "type": "uint256"
        }
      ],
      "stateMutability": "nonpayable",
      "type": "constructor"
    },
    {
      "inputs": [
        {
          "internalType": "address",
          "name": "have",
          "type": "address"
        },
        {
          "internalType": "address",
          "name": "want",
          "type": "address"
        }
      ],
      "name": "OnlyCoordinatorCanFulfill",
      "type": "error"
    },
    {
      "inputs": [],
      "name": "Raffle__NotEnoughETHEntered",
      "type": "error"
    },
    {
      "inputs": [],
      "name": "Raffle__NotOpen",
      "type": "error"
    },
    {
      "inputs": [],
      "name": "Raffle__TransferFailed",
      "type": "error"
    },
    {
      "inputs": [
        {
          "internalType": "uint256",
          "name": "currentBalance",
          "type": "uint256"
        },
        {
          "internalType": "uint256",
          "name": "numPlayers",
          "type": "uint256"
        },
        {
          "internalType": "uint256",
          "name": "raffleState",
          "type": "uint256"
        }
      ],
      "name": "Raffle__UpkeepNotNeeded",
      "type": "error"
    },
    {
      "anonymous": false,
      "inputs": [
        {
          "indexed": true,
          "internalType": "address",
          "name": "player",
          "type": "address"
        }
      ],
      "name": "RaffleEnter",
      "type": "event"
    },
    {
      "anonymous": false,
      "inputs": [
        {
          "indexed": true,
          "internalType": "uint256",
          "name": "requestId",
          "type": "uint256"
        }
      ],
      "name": "RequestedRaffleWinner",
      "type": "event"
    },
    {
      "anonymous": false,
      "inputs": [
        {
          "indexed": true,
          "internalType": "address",
          "name": "winner",
          "type": "address"
        }
      ],
      "name": "WinnerPicked",
      "type": "event"
    },
    {
      "inputs": [
        {
          "internalType": "bytes",
          "name": "",
          "type": "bytes"
        }
      ],
      "name": "checkUpkeep",
      "outputs": [
        {
          "internalType": "bool",
          "name": "upkeepNeeded",
          "type": "bool"
        },
        {
          "internalType": "bytes",
          "name": "",
          "type": "bytes"
        }
      ],
      "stateMutability": "nonpayable",
      "type": "function"
    },
    {
      "inputs": [],
      "name": "enterRaffle",
      "outputs": [],
      "stateMutability": "payable",
      "type": "function"
    },
    {
      "inputs": [],
      "name": "getBalance",
      "outputs": [
        {
          "internalType": "uint256",
          "name": "",
          "type": "uint256"
        }
      ],
      "stateMutability": "view",
      "type": "function"
    },
    {
      "inputs": [],
      "name": "getEntranceFee",
      "outputs": [
        {
          "internalType": "uint256",
          "name": "",
          "type": "uint256"
        }
      ],
      "stateMutability": "view",
      "type": "function"
    },
    {
      "inputs": [],
      "name": "getInterval",
      "outputs": [
        {
          "internalType": "uint256",
          "name": "",
          "type": "uint256"
        }
      ],
      "stateMutability": "view",
      "type": "function"
    },
    {
      "inputs": [],
      "name": "getLatestTimeStamp",
      "outputs": [
        {
          "internalType": "uint256",
          "name": "",
          "type": "uint256"
        }
      ],
      "stateMutability": "view",
      "type": "function"
    },
    {
      "inputs": [],
      "name": "getNumberOfPlayers",
      "outputs": [
        {
          "internalType": "uint256",
          "name": "",
          "type": "uint256"
        }
      ],
      "stateMutability": "view",
      "type": "function"
    },
    {
      "inputs": [
        {
          "internalType": "uint256",
          "name": "index",
          "type": "uint256"
        }
      ],
      "name": "getPlayer",
      "outputs": [
        {
          "internalType": "address",
          "name": "",
          "type": "address"
        }
      ],
      "stateMutability": "view",
      "type": "function"
    },
    {
      "inputs": [],
      "name": "getRaffleState",
      "outputs": [
        {
          "internalType": "enum Raffle.RaffleState",
          "name": "",
          "type": "uint8"
        }
      ],
      "stateMutability": "view",
      "type": "function"
    },
    {
      "inputs": [],
      "name": "getRandomWords",
      "outputs": [
        {
          "internalType": "uint256",
          "name": "",
          "type": "uint256"
        }
      ],
      "stateMutability": "pure",
      "type": "function"
    },
    {
      "inputs": [],
      "name": "getRecentWinner",
      "outputs": [
        {
          "internalType": "address",
          "name": "",
          "type": "address"
        }
      ],
      "stateMutability": "view",
      "type": "function"
    },
    {
      "inputs": [],
      "name": "getRequestConfirmations",
      "outputs": [
        {
          "internalType": "uint256",
          "name": "",
          "type": "uint256"
        }
      ],
      "stateMutability": "pure",
      "type": "function"
    },
    {
      "inputs": [
        {
          "internalType": "bytes",
          "name": "",
          "type": "bytes"
        }
      ],
      "name": "performUpkeep",
      "outputs": [],
      "stateMutability": "nonpayable",
      "type": "function"
    },
    {
      "inputs": [
        {
          "internalType": "uint256",
          "name": "requestId",
          "type": "uint256"
        },
        {
          "internalType": "uint256[]",
          "name": "randomWords",
          "type": "uint256[]"
        }
      ],
      "name": "rawFulfillRandomWords",
      "outputs": [],
      "stateMutability": "nonpayable",
      "type": "function"
    }
  ],
  "transactionHash": "0xf9d260e60af2e16b18eab569cfc9414e105ef607cf21e6166061825807f8a8f0",
  "args": [
    "0x5FbDB2315678afecb367f032d93F642f64180aa3",
    "50000000000000000",
    "0x79d3d8832d904592c0bf9818b621522c988bb8b0c05cdc3b15aea1b6e8db0c15",
    "1",
    "500000",
    "30"
  ],
  "numDeployments": 1,
  "solcInputHash": "acdc081cfd175da72f4aeb301efbc9d5",
  "bytecode": "0x6101806040523480156200001257600080fd5b5060405162001919380380620019198339818101604052810190620000389190620002c9565b858073ffffffffffffffffffffffffffffffffffffffff1660808173ffffffffffffffffffffffffffffffffffffffff1681525050508460a081815250508360e081815250508267ffffffffffffffff166101008167ffffffffffffffff16815250508163ffffffff166101208163ffffffff16815250508573ffffffffffffffffffffffffffffffffffffffff1660c08173ffffffffffffffffffffffffffffffffffffffff16815250506000600160146101000a81548160ff021916908360018111156200010d576200010c62000365565b5b0217905550426002819055508061014081815250503373ffffffffffffffffffffffffffffffffffffffff166101608173ffffffffffffffffffffffffffffffffffffffff168152505050505050505062000394565b600080fd5b600073ffffffffffffffffffffffffffffffffffffffff82169050919050565b6000620001958262000168565b9050919050565b620001a78162000188565b8114620001b357600080fd5b50565b600081519050620001c7816200019c565b92915050565b6000819050919050565b620001e281620001cd565b8114620001ee57600080fd5b50565b6000815190506200020281620001d7565b92915050565b6000819050919050565b6200021d8162000208565b81146200022957600080fd5b50565b6000815190506200023d8162000212565b92915050565b600067ffffffffffffffff82169050919050565b620002628162000243565b81146200026e57600080fd5b50565b600081519050620002828162000257565b92915050565b600063ffffffff82169050919050565b620002a38162000288565b8114620002af57600080fd5b50565b600081519050620002c38162000298565b92915050565b60008060008060008060c08789031215620002e957620002e862000163565b5b6000620002f989828a01620001b6565b96505060206200030c89828a01620001f1565b95505060406200031f89828a016200022c565b94505060606200033289828a0162000271565b93505060806200034589828a01620002b2565b92505060a06200035889828a01620001f1565b9150509295509295509295565b7f4e487b7100000000000000000000000000000000000000000000000000000000600052602160045260246000fd5b60805160a05160c05160e0516101005161012051610140516101605161150d6200040c60003960005050600081816108260152610895015260006106f3015260006106d0015260006106af01526000610673015260008181610340015261044501526000818161038501526103d9015261150d6000f3fe6080604052600436106100dd5760003560e01c8063473f1ddc1161007f57806391ad27b41161005957806391ad27b41461027e578063ce10b1fb146102a9578063e55ae4e8146102d4578063fd6673f514610311576100dd565b8063473f1ddc146101ea5780635f1b0fd8146102155780636e04ff0d14610240576100dd565b80631fe543e3116100bb5780631fe543e3146101635780632cfcc5391461018c578063320229eb146101965780634585e33b146101c1576100dd565b806309bc33a7146100e2578063115cbaf51461010d57806312065fe014610138575b600080fd5b3480156100ee57600080fd5b506100f761033c565b6040516101049190610c24565b60405180910390f35b34801561011957600080fd5b50610122610364565b60405161012f9190610cb6565b60405180910390f35b34801561014457600080fd5b5061014d61037b565b60405161015a9190610c24565b60405180910390f35b34801561016f57600080fd5b5061018a60048036038101906101859190610e6a565b610383565b005b610194610443565b005b3480156101a257600080fd5b506101ab6105b2565b6040516101b89190610c24565b60405180910390f35b3480156101cd57600080fd5b506101e860048036038101906101e39190610f21565b6105bc565b005b3480156101f657600080fd5b506101ff6107ac565b60405161020c9190610faf565b60405180910390f35b34801561022157600080fd5b5061022a6107d6565b6040516102379190610c24565b60405180910390f35b34801561024c57600080fd5b506102676004803603810190610262919061107f565b6107e3565b604051610275929190611162565b60405180910390f35b34801561028a57600080fd5b50610293610891565b6040516102a09190610c24565b60405180910390f35b3480156102b557600080fd5b506102be6108b9565b6040516102cb9190610c24565b60405180910390f35b3480156102e057600080fd5b506102fb60048036038101906102f69190611192565b6108c8565b6040516103089190610faf565b60405180910390f35b34801561031d57600080fd5b5061032661090f565b6040516103339190610c24565b60405180910390f35b60007f0000000000000000000000000000000000000000000000000000000000000000905090565b6000600160149054906101000a900460ff16905090565b600047905090565b7f000000000000000000000000000000000000000000000000000000000000000073ffffffffffffffffffffffffffffffffffffffff163373ffffffffffffffffffffffffffffffffffffffff161461043557337f00000000000000000000000000000000000000000000000000000000000000006040517f1cf993f400000000000000000000000000000000000000000000000000000000815260040161042c9291906111bf565b60405180910390fd5b61043f828261091b565b5050565b7f000000000000000000000000000000000000000000000000000000000000000034101561049d576040517fbd4e069500000000000000000000000000000000000000000000000000000000815260040160405180910390fd5b600060018111156104b1576104b0610c3f565b5b600160149054906101000a900460ff1660018111156104d3576104d2610c3f565b5b1461050a576040517f1425571c00000000000000000000000000000000000000000000000000000000815260040160405180910390fd5b6000339080600181540180825580915050600190039060005260206000200160009091909190916101000a81548173ffffffffffffffffffffffffffffffffffffffff021916908373ffffffffffffffffffffffffffffffffffffffff1602179055503373ffffffffffffffffffffffffffffffffffffffff167f0805e1d667bddb8a95f0f09880cf94f403fb596ce79928d9f29b74203ba284d460405160405180910390a2565b6000600254905090565b60006105d6604051806020016040528060008152506107e3565b509050806106455747600080549050600160149054906101000a900460ff16600181111561060757610606610c3f565b5b6040517f584327aa00000000000000000000000000000000000000000000000000000000815260040161063c939291906111e8565b60405180910390fd5b60018060146101000a81548160ff0219169083600181111561066a57610669610c3f565b5b021790555060007f000000000000000000000000000000000000000000000000000000000000000073ffffffffffffffffffffffffffffffffffffffff16635d3b1d307f00000000000000000000000000000000000000000000000000000000000000007f000000000000000000000000000000000000000000000000000000000000000060037f000000000000000000000000000000000000000000000000000000000000000060016040518663ffffffff1660e01b8152600401610734959493929190611297565b6020604051808303816000875af1158015610753573d6000803e3d6000fd5b505050506040513d601f19601f8201168201806040525081019061077791906112ff565b9050807fcd6e45c8998311cab7e9d4385596cac867e20a0587194b954fa3a731c93ce78b60405160405180910390a250505050565b6000600160009054906101000a900473ffffffffffffffffffffffffffffffffffffffff16905090565b6000600361ffff16905090565b600060606000600160149054906101000a900460ff16600181111561080b5761080a610c3f565b5b6000600181111561081f5761081e610c3f565b5b14905060007f000000000000000000000000000000000000000000000000000000000000000060025442610853919061135b565b11905060006001600080549050119050600080471190508380156108745750825b801561087d5750815b80156108865750805b955050505050915091565b60007f0000000000000000000000000000000000000000000000000000000000000000905090565b6000600163ffffffff16905090565b60008082815481106108dd576108dc61138f565b5b9060005260206000200160009054906101000a900473ffffffffffffffffffffffffffffffffffffffff169050919050565b60008080549050905090565b60008080549050826000815181106109365761093561138f565b5b602002602001015161094891906113ed565b9050600080828154811061095f5761095e61138f565b5b9060005260206000200160009054906101000a900473ffffffffffffffffffffffffffffffffffffffff16905080600160006101000a81548173ffffffffffffffffffffffffffffffffffffffff021916908373ffffffffffffffffffffffffffffffffffffffff1602179055506000600160146101000a81548160ff021916908360018111156109f3576109f2610c3f565b5b0217905550600067ffffffffffffffff811115610a1357610a12610d27565b5b604051908082528060200260200182016040528015610a415781602001602082028036833780820191505090505b5060009080519060200190610a57929190610b64565b504260028190555060008173ffffffffffffffffffffffffffffffffffffffff16600a600947610a87919061141e565b610a919190611460565b604051610a9d906114c2565b60006040518083038185875af1925050503d8060008114610ada576040519150601f19603f3d011682016040523d82523d6000602084013e610adf565b606091505b5050905080610b1a576040517fa1d04b3900000000000000000000000000000000000000000000000000000000815260040160405180910390fd5b8173ffffffffffffffffffffffffffffffffffffffff167f5b690ec4a06fe979403046eaeea5b3ce38524683c3001f662c8b5a829632f7df60405160405180910390a25050505050565b828054828255906000526020600020908101928215610bdd579160200282015b82811115610bdc5782518260006101000a81548173ffffffffffffffffffffffffffffffffffffffff021916908373ffffffffffffffffffffffffffffffffffffffff16021790555091602001919060010190610b84565b5b509050610bea9190610bee565b5090565b5b80821115610c07576000816000905550600101610bef565b5090565b6000819050919050565b610c1e81610c0b565b82525050565b6000602082019050610c396000830184610c15565b92915050565b7f4e487b7100000000000000000000000000000000000000000000000000000000600052602160045260246000fd5b60028110610c7f57610c7e610c3f565b5b50565b6000819050610c9082610c6e565b919050565b6000610ca082610c82565b9050919050565b610cb081610c95565b82525050565b6000602082019050610ccb6000830184610ca7565b92915050565b6000604051905090565b600080fd5b600080fd5b610cee81610c0b565b8114610cf957600080fd5b50565b600081359050610d0b81610ce5565b92915050565b600080fd5b6000601f19601f8301169050919050565b7f4e487b7100000000000000000000000000000000000000000000000000000000600052604160045260246000fd5b610d5f82610d16565b810181811067ffffffffffffffff82111715610d7e57610d7d610d27565b5b80604052505050565b6000610d91610cd1565b9050610d9d8282610d56565b919050565b600067ffffffffffffffff821115610dbd57610dbc610d27565b5b602082029050602081019050919050565b600080fd5b6000610de6610de184610da2565b610d87565b90508083825260208201905060208402830185811115610e0957610e08610dce565b5b835b81811015610e325780610e1e8882610cfc565b845260208401935050602081019050610e0b565b5050509392505050565b600082601f830112610e5157610e50610d11565b5b8135610e61848260208601610dd3565b91505092915050565b60008060408385031215610e8157610e80610cdb565b5b6000610e8f85828601610cfc565b925050602083013567ffffffffffffffff811115610eb057610eaf610ce0565b5b610ebc85828601610e3c565b9150509250929050565b600080fd5b60008083601f840112610ee157610ee0610d11565b5b8235905067ffffffffffffffff811115610efe57610efd610ec6565b5b602083019150836001820283011115610f1a57610f19610dce565b5b9250929050565b60008060208385031215610f3857610f37610cdb565b5b600083013567ffffffffffffffff811115610f5657610f55610ce0565b5b610f6285828601610ecb565b92509250509250929050565b600073ffffffffffffffffffffffffffffffffffffffff82169050919050565b6000610f9982610f6e565b9050919050565b610fa981610f8e565b82525050565b6000602082019050610fc46000830184610fa0565b92915050565b600080fd5b600067ffffffffffffffff821115610fea57610fe9610d27565b5b610ff382610d16565b9050602081019050919050565b82818337600083830152505050565b600061102261101d84610fcf565b610d87565b90508281526020810184848401111561103e5761103d610fca565b5b611049848285611000565b509392505050565b600082601f83011261106657611065610d11565b5b813561107684826020860161100f565b91505092915050565b60006020828403121561109557611094610cdb565b5b600082013567ffffffffffffffff8111156110b3576110b2610ce0565b5b6110bf84828501611051565b91505092915050565b60008115159050919050565b6110dd816110c8565b82525050565b600081519050919050565b600082825260208201905092915050565b60005b8381101561111d578082015181840152602081019050611102565b60008484015250505050565b6000611134826110e3565b61113e81856110ee565b935061114e8185602086016110ff565b61115781610d16565b840191505092915050565b600060408201905061117760008301856110d4565b81810360208301526111898184611129565b90509392505050565b6000602082840312156111a8576111a7610cdb565b5b60006111b684828501610cfc565b91505092915050565b60006040820190506111d46000830185610fa0565b6111e16020830184610fa0565b9392505050565b60006060820190506111fd6000830186610c15565b61120a6020830185610c15565b6112176040830184610c15565b949350505050565b6000819050919050565b6112328161121f565b82525050565b600067ffffffffffffffff82169050919050565b61125581611238565b82525050565b600061ffff82169050919050565b6112728161125b565b82525050565b600063ffffffff82169050919050565b61129181611278565b82525050565b600060a0820190506112ac6000830188611229565b6112b9602083018761124c565b6112c66040830186611269565b6112d36060830185611288565b6112e06080830184611288565b9695505050505050565b6000815190506112f981610ce5565b92915050565b60006020828403121561131557611314610cdb565b5b6000611323848285016112ea565b91505092915050565b7f4e487b7100000000000000000000000000000000000000000000000000000000600052601160045260246000fd5b600061136682610c0b565b915061137183610c0b565b92508282039050818111156113895761138861132c565b5b92915050565b7f4e487b7100000000000000000000000000000000000000000000000000000000600052603260045260246000fd5b7f4e487b7100000000000000000000000000000000000000000000000000000000600052601260045260246000fd5b60006113f882610c0b565b915061140383610c0b565b925082611413576114126113be565b5b828206905092915050565b600061142982610c0b565b915061143483610c0b565b925082820261144281610c0b565b915082820484148315176114595761145861132c565b5b5092915050565b600061146b82610c0b565b915061147683610c0b565b925082611486576114856113be565b5b828204905092915050565b600081905092915050565b50565b60006114ac600083611491565b91506114b78261149c565b600082019050919050565b60006114cd8261149f565b915081905091905056fea264697066735822122099d9606835bc92e84396ff5fe041fbf65c3839dcee9551cfb90681315e589cd764736f6c63430008110033",
  "devdoc": {
    "author": "Joel Wright",
    "details": "This implements Chainlink VRF v2 and Chainlink Keepers",
    "kind": "dev",
    "methods": {
      "checkUpkeep(bytes)": {
        "details": "This is the function that the Chainlink Keeper nodes call, they look for `upkeepNeeded` to return true. The following should be true in order to return true: 1. The time interval should have passed 2. The lottery should have at least 2 players, and some ETH 3. The subscription is funded with LINK 4. The lottery should be in an \"open\" state"
      }
    },
    "title": "An Ethereum Raffle Contract",
    "version": 1
  },
  "userdoc": {
    "kind": "user",
    "methods": {},
    "notice": "This contract is for creating an untamperable decentralised raffle through a smart contract",
    "version": 1
  },
  "storageLayout": {
    "storage": [
      {
        "astId": 208,
        "contract": "contracts/Raffle.sol:Raffle",
        "label": "s_players",
        "offset": 0,
        "slot": "0",
        "type": "t_array(t_address_payable)dyn_storage"
      },
      {
        "astId": 225,
        "contract": "contracts/Raffle.sol:Raffle",
        "label": "s_recentWinner",
        "offset": 0,
        "slot": "1",
        "type": "t_address"
      },
      {
        "astId": 228,
        "contract": "contracts/Raffle.sol:Raffle",
        "label": "s_raffleState",
        "offset": 20,
        "slot": "1",
        "type": "t_enum(RaffleState)203"
      },
      {
        "astId": 230,
        "contract": "contracts/Raffle.sol:Raffle",
        "label": "s_lastTimeStamp",
        "offset": 0,
        "slot": "2",
        "type": "t_uint256"
      }
    ],
    "types": {
      "t_address": {
        "encoding": "inplace",
        "label": "address",
        "numberOfBytes": "20"
      },
      "t_address_payable": {
        "encoding": "inplace",
        "label": "address payable",
        "numberOfBytes": "20"
      },
      "t_array(t_address_payable)dyn_storage": {
        "base": "t_address_payable",
        "encoding": "dynamic_array",
        "label": "address payable[]",
        "numberOfBytes": "32"
      },
      "t_enum(RaffleState)203": {
        "encoding": "inplace",
        "label": "enum Raffle.RaffleState",
        "numberOfBytes": "1"
      },
      "t_uint256": {
        "encoding": "inplace",
        "label": "uint256",
        "numberOfBytes": "32"
      }
    }
  }
}